{
	"data": {
		"bytecode": {
			"linkReferences": {},
			"object": "6080604052348015600e575f80fd5b506113ec8061001c5f395ff3fe608060405234801561000f575f80fd5b5060043610610029575f3560e01c8063f48d77291461002d575b5f80fd5b610047600480360381019061004291906111e5565b61005d565b604051610054919061123f565b60405180910390f35b5f80600167ffffffffffffffff81111561007a57610079610eda565b5b6040519080825280602002602001820160405280156100a85781602001602082028036833780820191505090505b5090505f5b60018110156100fa578381600181106100c9576100c8611258565b5b60200201518282815181106100e1576100e0611258565b5b60200260200101818152505080806001019150506100ad565b505f6101068286610120565b0361011557600191505061011a565b5f9150505b92915050565b5f807f30644e72e131a029b85045b68181585d2833e84879b9709143e1f593f000000190505f61014e6102a5565b90508060800151516001865161016491906112b2565b1461016d575f80fd5b5f60405180604001604052805f81526020015f81525090505f5b865181101561021b57838782815181106101a4576101a3611258565b5b6020026020010151106101b5575f80fd5b61020c8261020785608001516001856101ce91906112b2565b815181106101df576101de611258565b5b60200260200101518a85815181106101fa576101f9611258565b5b60200260200101516106a7565b610744565b91508080600101915050610187565b506102448183608001515f8151811061023757610236611258565b5b6020026020010151610744565b9050610288855f0151866020015161025b84610806565b856040015161026d8a60400151610806565b876060015161027e895f0151610806565b89602001516108a4565b610298576001935050505061029f565b5f93505050505b92915050565b6102ad610dac565b60405180604001604052807f09424626b7878acd195305c0cd71afdbc5f5d7e3cb252c04fd93f232285e5bb581526020017f24307d43866d0873a95eeee381469b72ca4b52de57d2b1f28dac5c21fbc54439815250815f0181905250604051806040016040528060405180604001604052807f0b6ee264b64d0f26c00cb623c2611ab37d47bc14bf030ce3bdfa87adf42f1f5281526020017f26e9c58991fadeb9149af8b488c6ce27b54fbd3631177f02b9609f5dc3411466815250815260200160405180604001604052807f0d596d771462a5615ec7d411ee8f107d62d4dd0e2fc17ae45f8ec5d164cd616881526020017f1862777eda7379f0e909dbd011f39851df1b6a5e636b53200bdc8fa61aa8ff688152508152508160200181905250604051806040016040528060405180604001604052807f2792ad4989efe5523973a9a577b51ee01cb11bb47b3eae275d702b92f85c29a881526020017f160304c46867e9e6e5f34ba6aff1134d3b29b5a5da2123495883b759d983ec78815250815260200160405180604001604052807f28df62ab1b3abd09cd9f7bdfa14c49cd0e61e956199c396781296033a198d9b781526020017f1dd4dec5815e539cd6b36b6d02ee6e2e644dc2983a03132c98a7615abe42b22c8152508152508160400181905250604051806040016040528060405180604001604052807f1ab990392a53cde3dddb8467f13a9c5f62542e05e4f66ff9db53954aa2e7b2bc81526020017f141c88486156e3e50d81c72195c1992158407977ae37f848c046c82fb1bbe97c815250815260200160405180604001604052807f0367c67ed34ab3b7fde3e435a8cb19f78b740ec321a5775cd6f00deb12f3f98781526020017f206174e986eef68733f27b1ece97626899662b3262551219fa7f0cf17fe5676b8152508152508160600181905250600267ffffffffffffffff81111561057357610572610eda565b5b6040519080825280602002602001820160405280156105ac57816020015b610599610df3565b8152602001906001900390816105915790505b50816080018190525060405180604001604052807f2bf12fc3713665a30b9583185577e502cb14b8aa9da76d7e39b85d4de69082ba81526020017f058a538e3558b8d746d0dce0e933e3608f86448d6b962ae58cbb1241d4fa503981525081608001515f8151811061062157610620611258565b5b602002602001018190525060405180604001604052807f081d82b4d16992efb484d1d89c22d56aff97227eb6d88c04f3eb275c6bd5d0b281526020017f3055f12ee66ec400c5f920653417ac32034cd4100f17a91c9cbd5dff64fb7842815250816080015160018151811061069957610698611258565b5b602002602001018190525090565b6106af610df3565b6106b7610e0b565b835f0151815f600381106106ce576106cd611258565b5b6020020181815250508360200151816001600381106106f0576106ef611258565b5b602002018181525050828160026003811061070e5761070d611258565b5b6020020181815250505f60608360808460076107d05a03fa9050805f810361073257fe5b508061073c575f80fd5b505092915050565b61074c610df3565b610754610e2d565b835f0151815f6004811061076b5761076a611258565b5b60200201818152505083602001518160016004811061078d5761078c611258565b5b602002018181525050825f0151816002600481106107ae576107ad611258565b5b6020020181815250508260200151816003600481106107d0576107cf611258565b5b6020020181815250505f60608360c08460066107d05a03fa9050805f81036107f457fe5b50806107fe575f80fd5b505092915050565b61080e610df3565b5f7f30644e72e131a029b85045b68181585d97816a916871ca8d3c208c16d87cfd4790505f835f015114801561084757505f8360200151145b156108695760405180604001604052805f81526020015f81525091505061089f565b6040518060400160405280845f0151815260200182856020015161088d9190611312565b836108989190611342565b8152509150505b919050565b5f80600467ffffffffffffffff8111156108c1576108c0610eda565b5b6040519080825280602002602001820160405280156108fa57816020015b6108e7610df3565b8152602001906001900390816108df5790505b5090505f600467ffffffffffffffff81111561091957610918610eda565b5b60405190808252806020026020018201604052801561095257816020015b61093f610e4f565b8152602001906001900390816109375790505b5090508a825f8151811061096957610968611258565b5b6020026020010181905250888260018151811061098957610988611258565b5b602002602001018190525086826002815181106109a9576109a8611258565b5b602002602001018190525084826003815181106109c9576109c8611258565b5b602002602001018190525089815f815181106109e8576109e7611258565b5b60200260200101819052508781600181518110610a0857610a07611258565b5b60200260200101819052508581600281518110610a2857610a27611258565b5b60200260200101819052508381600381518110610a4857610a47611258565b5b6020026020010181905250610a5d8282610a6d565b9250505098975050505050505050565b5f8151835114610a7b575f80fd5b5f835190505f600682610a8e9190611375565b90505f8167ffffffffffffffff811115610aab57610aaa610eda565b5b604051908082528060200260200182016040528015610ad95781602001602082028036833780820191505090505b5090505f5b83811015610d5157868181518110610af957610af8611258565b5b60200260200101515f0151825f600684610b139190611375565b610b1d91906112b2565b81518110610b2e57610b2d611258565b5b602002602001018181525050868181518110610b4d57610b4c611258565b5b602002602001015160200151826001600684610b699190611375565b610b7391906112b2565b81518110610b8457610b83611258565b5b602002602001018181525050858181518110610ba357610ba2611258565b5b60200260200101515f0151600160028110610bc157610bc0611258565b5b6020020151826002600684610bd69190611375565b610be091906112b2565b81518110610bf157610bf0611258565b5b602002602001018181525050858181518110610c1057610c0f611258565b5b60200260200101515f01515f60028110610c2d57610c2c611258565b5b6020020151826003600684610c429190611375565b610c4c91906112b2565b81518110610c5d57610c5c611258565b5b602002602001018181525050858181518110610c7c57610c7b611258565b5b602002602001015160200151600160028110610c9b57610c9a611258565b5b6020020151826004600684610cb09190611375565b610cba91906112b2565b81518110610ccb57610cca611258565b5b602002602001018181525050858181518110610cea57610ce9611258565b5b6020026020010151602001515f60028110610d0857610d07611258565b5b6020020151826005600684610d1d9190611375565b610d2791906112b2565b81518110610d3857610d37611258565b5b6020026020010181815250508080600101915050610ade565b50610d5a610e75565b5f602082602086026020860160086107d05a03fa9050805f8103610d7a57fe5b5080610d84575f80fd5b5f825f60018110610d9857610d97611258565b5b602002015114159550505050505092915050565b6040518060a00160405280610dbf610df3565b8152602001610dcc610e4f565b8152602001610dd9610e4f565b8152602001610de6610e4f565b8152602001606081525090565b60405180604001604052805f81526020015f81525090565b6040518060600160405280600390602082028036833780820191505090505090565b6040518060800160405280600490602082028036833780820191505090505090565b6040518060400160405280610e62610e97565b8152602001610e6f610e97565b81525090565b6040518060200160405280600190602082028036833780820191505090505090565b6040518060400160405280600290602082028036833780820191505090505090565b5f604051905090565b5f80fd5b5f80fd5b5f601f19601f8301169050919050565b7f4e487b71000000000000000000000000000000000000000000000000000000005f52604160045260245ffd5b610f1082610eca565b810181811067ffffffffffffffff82111715610f2f57610f2e610eda565b5b80604052505050565b5f610f41610eb9565b9050610f4d8282610f07565b919050565b5f819050919050565b610f6481610f52565b8114610f6e575f80fd5b50565b5f81359050610f7f81610f5b565b92915050565b5f60408284031215610f9a57610f99610ec6565b5b610fa46040610f38565b90505f610fb384828501610f71565b5f830152506020610fc684828501610f71565b60208301525092915050565b5f80fd5b5f67ffffffffffffffff821115610ff057610fef610eda565b5b602082029050919050565b5f80fd5b5f61101161100c84610fd6565b610f38565b9050806020840283018581111561102b5761102a610ffb565b5b835b8181101561105457806110408882610f71565b84526020840193505060208101905061102d565b5050509392505050565b5f82601f83011261107257611071610fd2565b5b600261107f848285610fff565b91505092915050565b5f6080828403121561109d5761109c610ec6565b5b6110a76040610f38565b90505f6110b68482850161105e565b5f8301525060406110c98482850161105e565b60208301525092915050565b5f61010082840312156110eb576110ea610ec6565b5b6110f56060610f38565b90505f61110484828501610f85565b5f83015250604061111784828501611088565b60208301525060c061112b84828501610f85565b60408301525092915050565b5f67ffffffffffffffff82111561115157611150610eda565b5b602082029050919050565b5f61116e61116984611137565b610f38565b9050806020840283018581111561118857611187610ffb565b5b835b818110156111b1578061119d8882610f71565b84526020840193505060208101905061118a565b5050509392505050565b5f82601f8301126111cf576111ce610fd2565b5b60016111dc84828561115c565b91505092915050565b5f8061012083850312156111fc576111fb610ec2565b5b5f611209858286016110d5565b92505061010061121b858286016111bb565b9150509250929050565b5f8115159050919050565b61123981611225565b82525050565b5f6020820190506112525f830184611230565b92915050565b7f4e487b71000000000000000000000000000000000000000000000000000000005f52603260045260245ffd5b7f4e487b71000000000000000000000000000000000000000000000000000000005f52601160045260245ffd5b5f6112bc82610f52565b91506112c783610f52565b92508282019050808211156112df576112de611285565b5b92915050565b7f4e487b71000000000000000000000000000000000000000000000000000000005f52601260045260245ffd5b5f61131c82610f52565b915061132783610f52565b925082611337576113366112e5565b5b828206905092915050565b5f61134c82610f52565b915061135783610f52565b925082820390508181111561136f5761136e611285565b5b92915050565b5f61137f82610f52565b915061138a83610f52565b925082820261139881610f52565b915082820484148315176113af576113ae611285565b5b509291505056fea2646970667358221220be58a71af719ebbc4f853d88f25a038cc05ed2d151e9ec599e47d8df90536d9264736f6c634300081a0033",
			"opcodes": "PUSH1 0x80 PUSH1 0x40 MSTORE CALLVALUE DUP1 ISZERO PUSH1 0xE JUMPI PUSH0 DUP1 REVERT JUMPDEST POP PUSH2 0x13EC DUP1 PUSH2 0x1C PUSH0 CODECOPY PUSH0 RETURN INVALID PUSH1 0x80 PUSH1 0x40 MSTORE CALLVALUE DUP1 ISZERO PUSH2 0xF JUMPI PUSH0 DUP1 REVERT JUMPDEST POP PUSH1 0x4 CALLDATASIZE LT PUSH2 0x29 JUMPI PUSH0 CALLDATALOAD PUSH1 0xE0 SHR DUP1 PUSH4 0xF48D7729 EQ PUSH2 0x2D JUMPI JUMPDEST PUSH0 DUP1 REVERT JUMPDEST PUSH2 0x47 PUSH1 0x4 DUP1 CALLDATASIZE SUB DUP2 ADD SWAP1 PUSH2 0x42 SWAP2 SWAP1 PUSH2 0x11E5 JUMP JUMPDEST PUSH2 0x5D JUMP JUMPDEST PUSH1 0x40 MLOAD PUSH2 0x54 SWAP2 SWAP1 PUSH2 0x123F JUMP JUMPDEST PUSH1 0x40 MLOAD DUP1 SWAP2 SUB SWAP1 RETURN JUMPDEST PUSH0 DUP1 PUSH1 0x1 PUSH8 0xFFFFFFFFFFFFFFFF DUP2 GT ISZERO PUSH2 0x7A JUMPI PUSH2 0x79 PUSH2 0xEDA JUMP JUMPDEST JUMPDEST PUSH1 0x40 MLOAD SWAP1 DUP1 DUP3 MSTORE DUP1 PUSH1 0x20 MUL PUSH1 0x20 ADD DUP3 ADD PUSH1 0x40 MSTORE DUP1 ISZERO PUSH2 0xA8 JUMPI DUP2 PUSH1 0x20 ADD PUSH1 0x20 DUP3 MUL DUP1 CALLDATASIZE DUP4 CALLDATACOPY DUP1 DUP3 ADD SWAP2 POP POP SWAP1 POP JUMPDEST POP SWAP1 POP PUSH0 JUMPDEST PUSH1 0x1 DUP2 LT ISZERO PUSH2 0xFA JUMPI DUP4 DUP2 PUSH1 0x1 DUP2 LT PUSH2 0xC9 JUMPI PUSH2 0xC8 PUSH2 0x1258 JUMP JUMPDEST JUMPDEST PUSH1 0x20 MUL ADD MLOAD DUP3 DUP3 DUP2 MLOAD DUP2 LT PUSH2 0xE1 JUMPI PUSH2 0xE0 PUSH2 0x1258 JUMP JUMPDEST JUMPDEST PUSH1 0x20 MUL PUSH1 0x20 ADD ADD DUP2 DUP2 MSTORE POP POP DUP1 DUP1 PUSH1 0x1 ADD SWAP2 POP POP PUSH2 0xAD JUMP JUMPDEST POP PUSH0 PUSH2 0x106 DUP3 DUP7 PUSH2 0x120 JUMP JUMPDEST SUB PUSH2 0x115 JUMPI PUSH1 0x1 SWAP2 POP POP PUSH2 0x11A JUMP JUMPDEST PUSH0 SWAP2 POP POP JUMPDEST SWAP3 SWAP2 POP POP JUMP JUMPDEST PUSH0 DUP1 PUSH32 0x30644E72E131A029B85045B68181585D2833E84879B9709143E1F593F0000001 SWAP1 POP PUSH0 PUSH2 0x14E PUSH2 0x2A5 JUMP JUMPDEST SWAP1 POP DUP1 PUSH1 0x80 ADD MLOAD MLOAD PUSH1 0x1 DUP7 MLOAD PUSH2 0x164 SWAP2 SWAP1 PUSH2 0x12B2 JUMP JUMPDEST EQ PUSH2 0x16D JUMPI PUSH0 DUP1 REVERT JUMPDEST PUSH0 PUSH1 0x40 MLOAD DUP1 PUSH1 0x40 ADD PUSH1 0x40 MSTORE DUP1 PUSH0 DUP2 MSTORE PUSH1 0x20 ADD PUSH0 DUP2 MSTORE POP SWAP1 POP PUSH0 JUMPDEST DUP7 MLOAD DUP2 LT ISZERO PUSH2 0x21B JUMPI DUP4 DUP8 DUP3 DUP2 MLOAD DUP2 LT PUSH2 0x1A4 JUMPI PUSH2 0x1A3 PUSH2 0x1258 JUMP JUMPDEST JUMPDEST PUSH1 0x20 MUL PUSH1 0x20 ADD ADD MLOAD LT PUSH2 0x1B5 JUMPI PUSH0 DUP1 REVERT JUMPDEST PUSH2 0x20C DUP3 PUSH2 0x207 DUP6 PUSH1 0x80 ADD MLOAD PUSH1 0x1 DUP6 PUSH2 0x1CE SWAP2 SWAP1 PUSH2 0x12B2 JUMP JUMPDEST DUP2 MLOAD DUP2 LT PUSH2 0x1DF JUMPI PUSH2 0x1DE PUSH2 0x1258 JUMP JUMPDEST JUMPDEST PUSH1 0x20 MUL PUSH1 0x20 ADD ADD MLOAD DUP11 DUP6 DUP2 MLOAD DUP2 LT PUSH2 0x1FA JUMPI PUSH2 0x1F9 PUSH2 0x1258 JUMP JUMPDEST JUMPDEST PUSH1 0x20 MUL PUSH1 0x20 ADD ADD MLOAD PUSH2 0x6A7 JUMP JUMPDEST PUSH2 0x744 JUMP JUMPDEST SWAP2 POP DUP1 DUP1 PUSH1 0x1 ADD SWAP2 POP POP PUSH2 0x187 JUMP JUMPDEST POP PUSH2 0x244 DUP2 DUP4 PUSH1 0x80 ADD MLOAD PUSH0 DUP2 MLOAD DUP2 LT PUSH2 0x237 JUMPI PUSH2 0x236 PUSH2 0x1258 JUMP JUMPDEST JUMPDEST PUSH1 0x20 MUL PUSH1 0x20 ADD ADD MLOAD PUSH2 0x744 JUMP JUMPDEST SWAP1 POP PUSH2 0x288 DUP6 PUSH0 ADD MLOAD DUP7 PUSH1 0x20 ADD MLOAD PUSH2 0x25B DUP5 PUSH2 0x806 JUMP JUMPDEST DUP6 PUSH1 0x40 ADD MLOAD PUSH2 0x26D DUP11 PUSH1 0x40 ADD MLOAD PUSH2 0x806 JUMP JUMPDEST DUP8 PUSH1 0x60 ADD MLOAD PUSH2 0x27E DUP10 PUSH0 ADD MLOAD PUSH2 0x806 JUMP JUMPDEST DUP10 PUSH1 0x20 ADD MLOAD PUSH2 0x8A4 JUMP JUMPDEST PUSH2 0x298 JUMPI PUSH1 0x1 SWAP4 POP POP POP POP PUSH2 0x29F JUMP JUMPDEST PUSH0 SWAP4 POP POP POP POP JUMPDEST SWAP3 SWAP2 POP POP JUMP JUMPDEST PUSH2 0x2AD PUSH2 0xDAC JUMP JUMPDEST PUSH1 0x40 MLOAD DUP1 PUSH1 0x40 ADD PUSH1 0x40 MSTORE DUP1 PUSH32 0x9424626B7878ACD195305C0CD71AFDBC5F5D7E3CB252C04FD93F232285E5BB5 DUP2 MSTORE PUSH1 0x20 ADD PUSH32 0x24307D43866D0873A95EEEE381469B72CA4B52DE57D2B1F28DAC5C21FBC54439 DUP2 MSTORE POP DUP2 PUSH0 ADD DUP2 SWAP1 MSTORE POP PUSH1 0x40 MLOAD DUP1 PUSH1 0x40 ADD PUSH1 0x40 MSTORE DUP1 PUSH1 0x40 MLOAD DUP1 PUSH1 0x40 ADD PUSH1 0x40 MSTORE DUP1 PUSH32 0xB6EE264B64D0F26C00CB623C2611AB37D47BC14BF030CE3BDFA87ADF42F1F52 DUP2 MSTORE PUSH1 0x20 ADD PUSH32 0x26E9C58991FADEB9149AF8B488C6CE27B54FBD3631177F02B9609F5DC3411466 DUP2 MSTORE POP DUP2 MSTORE PUSH1 0x20 ADD PUSH1 0x40 MLOAD DUP1 PUSH1 0x40 ADD PUSH1 0x40 MSTORE DUP1 PUSH32 0xD596D771462A5615EC7D411EE8F107D62D4DD0E2FC17AE45F8EC5D164CD6168 DUP2 MSTORE PUSH1 0x20 ADD PUSH32 0x1862777EDA7379F0E909DBD011F39851DF1B6A5E636B53200BDC8FA61AA8FF68 DUP2 MSTORE POP DUP2 MSTORE POP DUP2 PUSH1 0x20 ADD DUP2 SWAP1 MSTORE POP PUSH1 0x40 MLOAD DUP1 PUSH1 0x40 ADD PUSH1 0x40 MSTORE DUP1 PUSH1 0x40 MLOAD DUP1 PUSH1 0x40 ADD PUSH1 0x40 MSTORE DUP1 PUSH32 0x2792AD4989EFE5523973A9A577B51EE01CB11BB47B3EAE275D702B92F85C29A8 DUP2 MSTORE PUSH1 0x20 ADD PUSH32 0x160304C46867E9E6E5F34BA6AFF1134D3B29B5A5DA2123495883B759D983EC78 DUP2 MSTORE POP DUP2 MSTORE PUSH1 0x20 ADD PUSH1 0x40 MLOAD DUP1 PUSH1 0x40 ADD PUSH1 0x40 MSTORE DUP1 PUSH32 0x28DF62AB1B3ABD09CD9F7BDFA14C49CD0E61E956199C396781296033A198D9B7 DUP2 MSTORE PUSH1 0x20 ADD PUSH32 0x1DD4DEC5815E539CD6B36B6D02EE6E2E644DC2983A03132C98A7615ABE42B22C DUP2 MSTORE POP DUP2 MSTORE POP DUP2 PUSH1 0x40 ADD DUP2 SWAP1 MSTORE POP PUSH1 0x40 MLOAD DUP1 PUSH1 0x40 ADD PUSH1 0x40 MSTORE DUP1 PUSH1 0x40 MLOAD DUP1 PUSH1 0x40 ADD PUSH1 0x40 MSTORE DUP1 PUSH32 0x1AB990392A53CDE3DDDB8467F13A9C5F62542E05E4F66FF9DB53954AA2E7B2BC DUP2 MSTORE PUSH1 0x20 ADD PUSH32 0x141C88486156E3E50D81C72195C1992158407977AE37F848C046C82FB1BBE97C DUP2 MSTORE POP DUP2 MSTORE PUSH1 0x20 ADD PUSH1 0x40 MLOAD DUP1 PUSH1 0x40 ADD PUSH1 0x40 MSTORE DUP1 PUSH32 0x367C67ED34AB3B7FDE3E435A8CB19F78B740EC321A5775CD6F00DEB12F3F987 DUP2 MSTORE PUSH1 0x20 ADD PUSH32 0x206174E986EEF68733F27B1ECE97626899662B3262551219FA7F0CF17FE5676B DUP2 MSTORE POP DUP2 MSTORE POP DUP2 PUSH1 0x60 ADD DUP2 SWAP1 MSTORE POP PUSH1 0x2 PUSH8 0xFFFFFFFFFFFFFFFF DUP2 GT ISZERO PUSH2 0x573 JUMPI PUSH2 0x572 PUSH2 0xEDA JUMP JUMPDEST JUMPDEST PUSH1 0x40 MLOAD SWAP1 DUP1 DUP3 MSTORE DUP1 PUSH1 0x20 MUL PUSH1 0x20 ADD DUP3 ADD PUSH1 0x40 MSTORE DUP1 ISZERO PUSH2 0x5AC JUMPI DUP2 PUSH1 0x20 ADD JUMPDEST PUSH2 0x599 PUSH2 0xDF3 JUMP JUMPDEST DUP2 MSTORE PUSH1 0x20 ADD SWAP1 PUSH1 0x1 SWAP1 SUB SWAP1 DUP2 PUSH2 0x591 JUMPI SWAP1 POP JUMPDEST POP DUP2 PUSH1 0x80 ADD DUP2 SWAP1 MSTORE POP PUSH1 0x40 MLOAD DUP1 PUSH1 0x40 ADD PUSH1 0x40 MSTORE DUP1 PUSH32 0x2BF12FC3713665A30B9583185577E502CB14B8AA9DA76D7E39B85D4DE69082BA DUP2 MSTORE PUSH1 0x20 ADD PUSH32 0x58A538E3558B8D746D0DCE0E933E3608F86448D6B962AE58CBB1241D4FA5039 DUP2 MSTORE POP DUP2 PUSH1 0x80 ADD MLOAD PUSH0 DUP2 MLOAD DUP2 LT PUSH2 0x621 JUMPI PUSH2 0x620 PUSH2 0x1258 JUMP JUMPDEST JUMPDEST PUSH1 0x20 MUL PUSH1 0x20 ADD ADD DUP2 SWAP1 MSTORE POP PUSH1 0x40 MLOAD DUP1 PUSH1 0x40 ADD PUSH1 0x40 MSTORE DUP1 PUSH32 0x81D82B4D16992EFB484D1D89C22D56AFF97227EB6D88C04F3EB275C6BD5D0B2 DUP2 MSTORE PUSH1 0x20 ADD PUSH32 0x3055F12EE66EC400C5F920653417AC32034CD4100F17A91C9CBD5DFF64FB7842 DUP2 MSTORE POP DUP2 PUSH1 0x80 ADD MLOAD PUSH1 0x1 DUP2 MLOAD DUP2 LT PUSH2 0x699 JUMPI PUSH2 0x698 PUSH2 0x1258 JUMP JUMPDEST JUMPDEST PUSH1 0x20 MUL PUSH1 0x20 ADD ADD DUP2 SWAP1 MSTORE POP SWAP1 JUMP JUMPDEST PUSH2 0x6AF PUSH2 0xDF3 JUMP JUMPDEST PUSH2 0x6B7 PUSH2 0xE0B JUMP JUMPDEST DUP4 PUSH0 ADD MLOAD DUP2 PUSH0 PUSH1 0x3 DUP2 LT PUSH2 0x6CE JUMPI PUSH2 0x6CD PUSH2 0x1258 JUMP JUMPDEST JUMPDEST PUSH1 0x20 MUL ADD DUP2 DUP2 MSTORE POP POP DUP4 PUSH1 0x20 ADD MLOAD DUP2 PUSH1 0x1 PUSH1 0x3 DUP2 LT PUSH2 0x6F0 JUMPI PUSH2 0x6EF PUSH2 0x1258 JUMP JUMPDEST JUMPDEST PUSH1 0x20 MUL ADD DUP2 DUP2 MSTORE POP POP DUP3 DUP2 PUSH1 0x2 PUSH1 0x3 DUP2 LT PUSH2 0x70E JUMPI PUSH2 0x70D PUSH2 0x1258 JUMP JUMPDEST JUMPDEST PUSH1 0x20 MUL ADD DUP2 DUP2 MSTORE POP POP PUSH0 PUSH1 0x60 DUP4 PUSH1 0x80 DUP5 PUSH1 0x7 PUSH2 0x7D0 GAS SUB STATICCALL SWAP1 POP DUP1 PUSH0 DUP2 SUB PUSH2 0x732 JUMPI INVALID JUMPDEST POP DUP1 PUSH2 0x73C JUMPI PUSH0 DUP1 REVERT JUMPDEST POP POP SWAP3 SWAP2 POP POP JUMP JUMPDEST PUSH2 0x74C PUSH2 0xDF3 JUMP JUMPDEST PUSH2 0x754 PUSH2 0xE2D JUMP JUMPDEST DUP4 PUSH0 ADD MLOAD DUP2 PUSH0 PUSH1 0x4 DUP2 LT PUSH2 0x76B JUMPI PUSH2 0x76A PUSH2 0x1258 JUMP JUMPDEST JUMPDEST PUSH1 0x20 MUL ADD DUP2 DUP2 MSTORE POP POP DUP4 PUSH1 0x20 ADD MLOAD DUP2 PUSH1 0x1 PUSH1 0x4 DUP2 LT PUSH2 0x78D JUMPI PUSH2 0x78C PUSH2 0x1258 JUMP JUMPDEST JUMPDEST PUSH1 0x20 MUL ADD DUP2 DUP2 MSTORE POP POP DUP3 PUSH0 ADD MLOAD DUP2 PUSH1 0x2 PUSH1 0x4 DUP2 LT PUSH2 0x7AE JUMPI PUSH2 0x7AD PUSH2 0x1258 JUMP JUMPDEST JUMPDEST PUSH1 0x20 MUL ADD DUP2 DUP2 MSTORE POP POP DUP3 PUSH1 0x20 ADD MLOAD DUP2 PUSH1 0x3 PUSH1 0x4 DUP2 LT PUSH2 0x7D0 JUMPI PUSH2 0x7CF PUSH2 0x1258 JUMP JUMPDEST JUMPDEST PUSH1 0x20 MUL ADD DUP2 DUP2 MSTORE POP POP PUSH0 PUSH1 0x60 DUP4 PUSH1 0xC0 DUP5 PUSH1 0x6 PUSH2 0x7D0 GAS SUB STATICCALL SWAP1 POP DUP1 PUSH0 DUP2 SUB PUSH2 0x7F4 JUMPI INVALID JUMPDEST POP DUP1 PUSH2 0x7FE JUMPI PUSH0 DUP1 REVERT JUMPDEST POP POP SWAP3 SWAP2 POP POP JUMP JUMPDEST PUSH2 0x80E PUSH2 0xDF3 JUMP JUMPDEST PUSH0 PUSH32 0x30644E72E131A029B85045B68181585D97816A916871CA8D3C208C16D87CFD47 SWAP1 POP PUSH0 DUP4 PUSH0 ADD MLOAD EQ DUP1 ISZERO PUSH2 0x847 JUMPI POP PUSH0 DUP4 PUSH1 0x20 ADD MLOAD EQ JUMPDEST ISZERO PUSH2 0x869 JUMPI PUSH1 0x40 MLOAD DUP1 PUSH1 0x40 ADD PUSH1 0x40 MSTORE DUP1 PUSH0 DUP2 MSTORE PUSH1 0x20 ADD PUSH0 DUP2 MSTORE POP SWAP2 POP POP PUSH2 0x89F JUMP JUMPDEST PUSH1 0x40 MLOAD DUP1 PUSH1 0x40 ADD PUSH1 0x40 MSTORE DUP1 DUP5 PUSH0 ADD MLOAD DUP2 MSTORE PUSH1 0x20 ADD DUP3 DUP6 PUSH1 0x20 ADD MLOAD PUSH2 0x88D SWAP2 SWAP1 PUSH2 0x1312 JUMP JUMPDEST DUP4 PUSH2 0x898 SWAP2 SWAP1 PUSH2 0x1342 JUMP JUMPDEST DUP2 MSTORE POP SWAP2 POP POP JUMPDEST SWAP2 SWAP1 POP JUMP JUMPDEST PUSH0 DUP1 PUSH1 0x4 PUSH8 0xFFFFFFFFFFFFFFFF DUP2 GT ISZERO PUSH2 0x8C1 JUMPI PUSH2 0x8C0 PUSH2 0xEDA JUMP JUMPDEST JUMPDEST PUSH1 0x40 MLOAD SWAP1 DUP1 DUP3 MSTORE DUP1 PUSH1 0x20 MUL PUSH1 0x20 ADD DUP3 ADD PUSH1 0x40 MSTORE DUP1 ISZERO PUSH2 0x8FA JUMPI DUP2 PUSH1 0x20 ADD JUMPDEST PUSH2 0x8E7 PUSH2 0xDF3 JUMP JUMPDEST DUP2 MSTORE PUSH1 0x20 ADD SWAP1 PUSH1 0x1 SWAP1 SUB SWAP1 DUP2 PUSH2 0x8DF JUMPI SWAP1 POP JUMPDEST POP SWAP1 POP PUSH0 PUSH1 0x4 PUSH8 0xFFFFFFFFFFFFFFFF DUP2 GT ISZERO PUSH2 0x919 JUMPI PUSH2 0x918 PUSH2 0xEDA JUMP JUMPDEST JUMPDEST PUSH1 0x40 MLOAD SWAP1 DUP1 DUP3 MSTORE DUP1 PUSH1 0x20 MUL PUSH1 0x20 ADD DUP3 ADD PUSH1 0x40 MSTORE DUP1 ISZERO PUSH2 0x952 JUMPI DUP2 PUSH1 0x20 ADD JUMPDEST PUSH2 0x93F PUSH2 0xE4F JUMP JUMPDEST DUP2 MSTORE PUSH1 0x20 ADD SWAP1 PUSH1 0x1 SWAP1 SUB SWAP1 DUP2 PUSH2 0x937 JUMPI SWAP1 POP JUMPDEST POP SWAP1 POP DUP11 DUP3 PUSH0 DUP2 MLOAD DUP2 LT PUSH2 0x969 JUMPI PUSH2 0x968 PUSH2 0x1258 JUMP JUMPDEST JUMPDEST PUSH1 0x20 MUL PUSH1 0x20 ADD ADD DUP2 SWAP1 MSTORE POP DUP9 DUP3 PUSH1 0x1 DUP2 MLOAD DUP2 LT PUSH2 0x989 JUMPI PUSH2 0x988 PUSH2 0x1258 JUMP JUMPDEST JUMPDEST PUSH1 0x20 MUL PUSH1 0x20 ADD ADD DUP2 SWAP1 MSTORE POP DUP7 DUP3 PUSH1 0x2 DUP2 MLOAD DUP2 LT PUSH2 0x9A9 JUMPI PUSH2 0x9A8 PUSH2 0x1258 JUMP JUMPDEST JUMPDEST PUSH1 0x20 MUL PUSH1 0x20 ADD ADD DUP2 SWAP1 MSTORE POP DUP5 DUP3 PUSH1 0x3 DUP2 MLOAD DUP2 LT PUSH2 0x9C9 JUMPI PUSH2 0x9C8 PUSH2 0x1258 JUMP JUMPDEST JUMPDEST PUSH1 0x20 MUL PUSH1 0x20 ADD ADD DUP2 SWAP1 MSTORE POP DUP10 DUP2 PUSH0 DUP2 MLOAD DUP2 LT PUSH2 0x9E8 JUMPI PUSH2 0x9E7 PUSH2 0x1258 JUMP JUMPDEST JUMPDEST PUSH1 0x20 MUL PUSH1 0x20 ADD ADD DUP2 SWAP1 MSTORE POP DUP8 DUP2 PUSH1 0x1 DUP2 MLOAD DUP2 LT PUSH2 0xA08 JUMPI PUSH2 0xA07 PUSH2 0x1258 JUMP JUMPDEST JUMPDEST PUSH1 0x20 MUL PUSH1 0x20 ADD ADD DUP2 SWAP1 MSTORE POP DUP6 DUP2 PUSH1 0x2 DUP2 MLOAD DUP2 LT PUSH2 0xA28 JUMPI PUSH2 0xA27 PUSH2 0x1258 JUMP JUMPDEST JUMPDEST PUSH1 0x20 MUL PUSH1 0x20 ADD ADD DUP2 SWAP1 MSTORE POP DUP4 DUP2 PUSH1 0x3 DUP2 MLOAD DUP2 LT PUSH2 0xA48 JUMPI PUSH2 0xA47 PUSH2 0x1258 JUMP JUMPDEST JUMPDEST PUSH1 0x20 MUL PUSH1 0x20 ADD ADD DUP2 SWAP1 MSTORE POP PUSH2 0xA5D DUP3 DUP3 PUSH2 0xA6D JUMP JUMPDEST SWAP3 POP POP POP SWAP9 SWAP8 POP POP POP POP POP POP POP POP JUMP JUMPDEST PUSH0 DUP2 MLOAD DUP4 MLOAD EQ PUSH2 0xA7B JUMPI PUSH0 DUP1 REVERT JUMPDEST PUSH0 DUP4 MLOAD SWAP1 POP PUSH0 PUSH1 0x6 DUP3 PUSH2 0xA8E SWAP2 SWAP1 PUSH2 0x1375 JUMP JUMPDEST SWAP1 POP PUSH0 DUP2 PUSH8 0xFFFFFFFFFFFFFFFF DUP2 GT ISZERO PUSH2 0xAAB JUMPI PUSH2 0xAAA PUSH2 0xEDA JUMP JUMPDEST JUMPDEST PUSH1 0x40 MLOAD SWAP1 DUP1 DUP3 MSTORE DUP1 PUSH1 0x20 MUL PUSH1 0x20 ADD DUP3 ADD PUSH1 0x40 MSTORE DUP1 ISZERO PUSH2 0xAD9 JUMPI DUP2 PUSH1 0x20 ADD PUSH1 0x20 DUP3 MUL DUP1 CALLDATASIZE DUP4 CALLDATACOPY DUP1 DUP3 ADD SWAP2 POP POP SWAP1 POP JUMPDEST POP SWAP1 POP PUSH0 JUMPDEST DUP4 DUP2 LT ISZERO PUSH2 0xD51 JUMPI DUP7 DUP2 DUP2 MLOAD DUP2 LT PUSH2 0xAF9 JUMPI PUSH2 0xAF8 PUSH2 0x1258 JUMP JUMPDEST JUMPDEST PUSH1 0x20 MUL PUSH1 0x20 ADD ADD MLOAD PUSH0 ADD MLOAD DUP3 PUSH0 PUSH1 0x6 DUP5 PUSH2 0xB13 SWAP2 SWAP1 PUSH2 0x1375 JUMP JUMPDEST PUSH2 0xB1D SWAP2 SWAP1 PUSH2 0x12B2 JUMP JUMPDEST DUP2 MLOAD DUP2 LT PUSH2 0xB2E JUMPI PUSH2 0xB2D PUSH2 0x1258 JUMP JUMPDEST JUMPDEST PUSH1 0x20 MUL PUSH1 0x20 ADD ADD DUP2 DUP2 MSTORE POP POP DUP7 DUP2 DUP2 MLOAD DUP2 LT PUSH2 0xB4D JUMPI PUSH2 0xB4C PUSH2 0x1258 JUMP JUMPDEST JUMPDEST PUSH1 0x20 MUL PUSH1 0x20 ADD ADD MLOAD PUSH1 0x20 ADD MLOAD DUP3 PUSH1 0x1 PUSH1 0x6 DUP5 PUSH2 0xB69 SWAP2 SWAP1 PUSH2 0x1375 JUMP JUMPDEST PUSH2 0xB73 SWAP2 SWAP1 PUSH2 0x12B2 JUMP JUMPDEST DUP2 MLOAD DUP2 LT PUSH2 0xB84 JUMPI PUSH2 0xB83 PUSH2 0x1258 JUMP JUMPDEST JUMPDEST PUSH1 0x20 MUL PUSH1 0x20 ADD ADD DUP2 DUP2 MSTORE POP POP DUP6 DUP2 DUP2 MLOAD DUP2 LT PUSH2 0xBA3 JUMPI PUSH2 0xBA2 PUSH2 0x1258 JUMP JUMPDEST JUMPDEST PUSH1 0x20 MUL PUSH1 0x20 ADD ADD MLOAD PUSH0 ADD MLOAD PUSH1 0x1 PUSH1 0x2 DUP2 LT PUSH2 0xBC1 JUMPI PUSH2 0xBC0 PUSH2 0x1258 JUMP JUMPDEST JUMPDEST PUSH1 0x20 MUL ADD MLOAD DUP3 PUSH1 0x2 PUSH1 0x6 DUP5 PUSH2 0xBD6 SWAP2 SWAP1 PUSH2 0x1375 JUMP JUMPDEST PUSH2 0xBE0 SWAP2 SWAP1 PUSH2 0x12B2 JUMP JUMPDEST DUP2 MLOAD DUP2 LT PUSH2 0xBF1 JUMPI PUSH2 0xBF0 PUSH2 0x1258 JUMP JUMPDEST JUMPDEST PUSH1 0x20 MUL PUSH1 0x20 ADD ADD DUP2 DUP2 MSTORE POP POP DUP6 DUP2 DUP2 MLOAD DUP2 LT PUSH2 0xC10 JUMPI PUSH2 0xC0F PUSH2 0x1258 JUMP JUMPDEST JUMPDEST PUSH1 0x20 MUL PUSH1 0x20 ADD ADD MLOAD PUSH0 ADD MLOAD PUSH0 PUSH1 0x2 DUP2 LT PUSH2 0xC2D JUMPI PUSH2 0xC2C PUSH2 0x1258 JUMP JUMPDEST JUMPDEST PUSH1 0x20 MUL ADD MLOAD DUP3 PUSH1 0x3 PUSH1 0x6 DUP5 PUSH2 0xC42 SWAP2 SWAP1 PUSH2 0x1375 JUMP JUMPDEST PUSH2 0xC4C SWAP2 SWAP1 PUSH2 0x12B2 JUMP JUMPDEST DUP2 MLOAD DUP2 LT PUSH2 0xC5D JUMPI PUSH2 0xC5C PUSH2 0x1258 JUMP JUMPDEST JUMPDEST PUSH1 0x20 MUL PUSH1 0x20 ADD ADD DUP2 DUP2 MSTORE POP POP DUP6 DUP2 DUP2 MLOAD DUP2 LT PUSH2 0xC7C JUMPI PUSH2 0xC7B PUSH2 0x1258 JUMP JUMPDEST JUMPDEST PUSH1 0x20 MUL PUSH1 0x20 ADD ADD MLOAD PUSH1 0x20 ADD MLOAD PUSH1 0x1 PUSH1 0x2 DUP2 LT PUSH2 0xC9B JUMPI PUSH2 0xC9A PUSH2 0x1258 JUMP JUMPDEST JUMPDEST PUSH1 0x20 MUL ADD MLOAD DUP3 PUSH1 0x4 PUSH1 0x6 DUP5 PUSH2 0xCB0 SWAP2 SWAP1 PUSH2 0x1375 JUMP JUMPDEST PUSH2 0xCBA SWAP2 SWAP1 PUSH2 0x12B2 JUMP JUMPDEST DUP2 MLOAD DUP2 LT PUSH2 0xCCB JUMPI PUSH2 0xCCA PUSH2 0x1258 JUMP JUMPDEST JUMPDEST PUSH1 0x20 MUL PUSH1 0x20 ADD ADD DUP2 DUP2 MSTORE POP POP DUP6 DUP2 DUP2 MLOAD DUP2 LT PUSH2 0xCEA JUMPI PUSH2 0xCE9 PUSH2 0x1258 JUMP JUMPDEST JUMPDEST PUSH1 0x20 MUL PUSH1 0x20 ADD ADD MLOAD PUSH1 0x20 ADD MLOAD PUSH0 PUSH1 0x2 DUP2 LT PUSH2 0xD08 JUMPI PUSH2 0xD07 PUSH2 0x1258 JUMP JUMPDEST JUMPDEST PUSH1 0x20 MUL ADD MLOAD DUP3 PUSH1 0x5 PUSH1 0x6 DUP5 PUSH2 0xD1D SWAP2 SWAP1 PUSH2 0x1375 JUMP JUMPDEST PUSH2 0xD27 SWAP2 SWAP1 PUSH2 0x12B2 JUMP JUMPDEST DUP2 MLOAD DUP2 LT PUSH2 0xD38 JUMPI PUSH2 0xD37 PUSH2 0x1258 JUMP JUMPDEST JUMPDEST PUSH1 0x20 MUL PUSH1 0x20 ADD ADD DUP2 DUP2 MSTORE POP POP DUP1 DUP1 PUSH1 0x1 ADD SWAP2 POP POP PUSH2 0xADE JUMP JUMPDEST POP PUSH2 0xD5A PUSH2 0xE75 JUMP JUMPDEST PUSH0 PUSH1 0x20 DUP3 PUSH1 0x20 DUP7 MUL PUSH1 0x20 DUP7 ADD PUSH1 0x8 PUSH2 0x7D0 GAS SUB STATICCALL SWAP1 POP DUP1 PUSH0 DUP2 SUB PUSH2 0xD7A JUMPI INVALID JUMPDEST POP DUP1 PUSH2 0xD84 JUMPI PUSH0 DUP1 REVERT JUMPDEST PUSH0 DUP3 PUSH0 PUSH1 0x1 DUP2 LT PUSH2 0xD98 JUMPI PUSH2 0xD97 PUSH2 0x1258 JUMP JUMPDEST JUMPDEST PUSH1 0x20 MUL ADD MLOAD EQ ISZERO SWAP6 POP POP POP POP POP POP SWAP3 SWAP2 POP POP JUMP JUMPDEST PUSH1 0x40 MLOAD DUP1 PUSH1 0xA0 ADD PUSH1 0x40 MSTORE DUP1 PUSH2 0xDBF PUSH2 0xDF3 JUMP JUMPDEST DUP2 MSTORE PUSH1 0x20 ADD PUSH2 0xDCC PUSH2 0xE4F JUMP JUMPDEST DUP2 MSTORE PUSH1 0x20 ADD PUSH2 0xDD9 PUSH2 0xE4F JUMP JUMPDEST DUP2 MSTORE PUSH1 0x20 ADD PUSH2 0xDE6 PUSH2 0xE4F JUMP JUMPDEST DUP2 MSTORE PUSH1 0x20 ADD PUSH1 0x60 DUP2 MSTORE POP SWAP1 JUMP JUMPDEST PUSH1 0x40 MLOAD DUP1 PUSH1 0x40 ADD PUSH1 0x40 MSTORE DUP1 PUSH0 DUP2 MSTORE PUSH1 0x20 ADD PUSH0 DUP2 MSTORE POP SWAP1 JUMP JUMPDEST PUSH1 0x40 MLOAD DUP1 PUSH1 0x60 ADD PUSH1 0x40 MSTORE DUP1 PUSH1 0x3 SWAP1 PUSH1 0x20 DUP3 MUL DUP1 CALLDATASIZE DUP4 CALLDATACOPY DUP1 DUP3 ADD SWAP2 POP POP SWAP1 POP POP SWAP1 JUMP JUMPDEST PUSH1 0x40 MLOAD DUP1 PUSH1 0x80 ADD PUSH1 0x40 MSTORE DUP1 PUSH1 0x4 SWAP1 PUSH1 0x20 DUP3 MUL DUP1 CALLDATASIZE DUP4 CALLDATACOPY DUP1 DUP3 ADD SWAP2 POP POP SWAP1 POP POP SWAP1 JUMP JUMPDEST PUSH1 0x40 MLOAD DUP1 PUSH1 0x40 ADD PUSH1 0x40 MSTORE DUP1 PUSH2 0xE62 PUSH2 0xE97 JUMP JUMPDEST DUP2 MSTORE PUSH1 0x20 ADD PUSH2 0xE6F PUSH2 0xE97 JUMP JUMPDEST DUP2 MSTORE POP SWAP1 JUMP JUMPDEST PUSH1 0x40 MLOAD DUP1 PUSH1 0x20 ADD PUSH1 0x40 MSTORE DUP1 PUSH1 0x1 SWAP1 PUSH1 0x20 DUP3 MUL DUP1 CALLDATASIZE DUP4 CALLDATACOPY DUP1 DUP3 ADD SWAP2 POP POP SWAP1 POP POP SWAP1 JUMP JUMPDEST PUSH1 0x40 MLOAD DUP1 PUSH1 0x40 ADD PUSH1 0x40 MSTORE DUP1 PUSH1 0x2 SWAP1 PUSH1 0x20 DUP3 MUL DUP1 CALLDATASIZE DUP4 CALLDATACOPY DUP1 DUP3 ADD SWAP2 POP POP SWAP1 POP POP SWAP1 JUMP JUMPDEST PUSH0 PUSH1 0x40 MLOAD SWAP1 POP SWAP1 JUMP JUMPDEST PUSH0 DUP1 REVERT JUMPDEST PUSH0 DUP1 REVERT JUMPDEST PUSH0 PUSH1 0x1F NOT PUSH1 0x1F DUP4 ADD AND SWAP1 POP SWAP2 SWAP1 POP JUMP JUMPDEST PUSH32 0x4E487B7100000000000000000000000000000000000000000000000000000000 PUSH0 MSTORE PUSH1 0x41 PUSH1 0x4 MSTORE PUSH1 0x24 PUSH0 REVERT JUMPDEST PUSH2 0xF10 DUP3 PUSH2 0xECA JUMP JUMPDEST DUP2 ADD DUP2 DUP2 LT PUSH8 0xFFFFFFFFFFFFFFFF DUP3 GT OR ISZERO PUSH2 0xF2F JUMPI PUSH2 0xF2E PUSH2 0xEDA JUMP JUMPDEST JUMPDEST DUP1 PUSH1 0x40 MSTORE POP POP POP JUMP JUMPDEST PUSH0 PUSH2 0xF41 PUSH2 0xEB9 JUMP JUMPDEST SWAP1 POP PUSH2 0xF4D DUP3 DUP3 PUSH2 0xF07 JUMP JUMPDEST SWAP2 SWAP1 POP JUMP JUMPDEST PUSH0 DUP2 SWAP1 POP SWAP2 SWAP1 POP JUMP JUMPDEST PUSH2 0xF64 DUP2 PUSH2 0xF52 JUMP JUMPDEST DUP2 EQ PUSH2 0xF6E JUMPI PUSH0 DUP1 REVERT JUMPDEST POP JUMP JUMPDEST PUSH0 DUP2 CALLDATALOAD SWAP1 POP PUSH2 0xF7F DUP2 PUSH2 0xF5B JUMP JUMPDEST SWAP3 SWAP2 POP POP JUMP JUMPDEST PUSH0 PUSH1 0x40 DUP3 DUP5 SUB SLT ISZERO PUSH2 0xF9A JUMPI PUSH2 0xF99 PUSH2 0xEC6 JUMP JUMPDEST JUMPDEST PUSH2 0xFA4 PUSH1 0x40 PUSH2 0xF38 JUMP JUMPDEST SWAP1 POP PUSH0 PUSH2 0xFB3 DUP5 DUP3 DUP6 ADD PUSH2 0xF71 JUMP JUMPDEST PUSH0 DUP4 ADD MSTORE POP PUSH1 0x20 PUSH2 0xFC6 DUP5 DUP3 DUP6 ADD PUSH2 0xF71 JUMP JUMPDEST PUSH1 0x20 DUP4 ADD MSTORE POP SWAP3 SWAP2 POP POP JUMP JUMPDEST PUSH0 DUP1 REVERT JUMPDEST PUSH0 PUSH8 0xFFFFFFFFFFFFFFFF DUP3 GT ISZERO PUSH2 0xFF0 JUMPI PUSH2 0xFEF PUSH2 0xEDA JUMP JUMPDEST JUMPDEST PUSH1 0x20 DUP3 MUL SWAP1 POP SWAP2 SWAP1 POP JUMP JUMPDEST PUSH0 DUP1 REVERT JUMPDEST PUSH0 PUSH2 0x1011 PUSH2 0x100C DUP5 PUSH2 0xFD6 JUMP JUMPDEST PUSH2 0xF38 JUMP JUMPDEST SWAP1 POP DUP1 PUSH1 0x20 DUP5 MUL DUP4 ADD DUP6 DUP2 GT ISZERO PUSH2 0x102B JUMPI PUSH2 0x102A PUSH2 0xFFB JUMP JUMPDEST JUMPDEST DUP4 JUMPDEST DUP2 DUP2 LT ISZERO PUSH2 0x1054 JUMPI DUP1 PUSH2 0x1040 DUP9 DUP3 PUSH2 0xF71 JUMP JUMPDEST DUP5 MSTORE PUSH1 0x20 DUP5 ADD SWAP4 POP POP PUSH1 0x20 DUP2 ADD SWAP1 POP PUSH2 0x102D JUMP JUMPDEST POP POP POP SWAP4 SWAP3 POP POP POP JUMP JUMPDEST PUSH0 DUP3 PUSH1 0x1F DUP4 ADD SLT PUSH2 0x1072 JUMPI PUSH2 0x1071 PUSH2 0xFD2 JUMP JUMPDEST JUMPDEST PUSH1 0x2 PUSH2 0x107F DUP5 DUP3 DUP6 PUSH2 0xFFF JUMP JUMPDEST SWAP2 POP POP SWAP3 SWAP2 POP POP JUMP JUMPDEST PUSH0 PUSH1 0x80 DUP3 DUP5 SUB SLT ISZERO PUSH2 0x109D JUMPI PUSH2 0x109C PUSH2 0xEC6 JUMP JUMPDEST JUMPDEST PUSH2 0x10A7 PUSH1 0x40 PUSH2 0xF38 JUMP JUMPDEST SWAP1 POP PUSH0 PUSH2 0x10B6 DUP5 DUP3 DUP6 ADD PUSH2 0x105E JUMP JUMPDEST PUSH0 DUP4 ADD MSTORE POP PUSH1 0x40 PUSH2 0x10C9 DUP5 DUP3 DUP6 ADD PUSH2 0x105E JUMP JUMPDEST PUSH1 0x20 DUP4 ADD MSTORE POP SWAP3 SWAP2 POP POP JUMP JUMPDEST PUSH0 PUSH2 0x100 DUP3 DUP5 SUB SLT ISZERO PUSH2 0x10EB JUMPI PUSH2 0x10EA PUSH2 0xEC6 JUMP JUMPDEST JUMPDEST PUSH2 0x10F5 PUSH1 0x60 PUSH2 0xF38 JUMP JUMPDEST SWAP1 POP PUSH0 PUSH2 0x1104 DUP5 DUP3 DUP6 ADD PUSH2 0xF85 JUMP JUMPDEST PUSH0 DUP4 ADD MSTORE POP PUSH1 0x40 PUSH2 0x1117 DUP5 DUP3 DUP6 ADD PUSH2 0x1088 JUMP JUMPDEST PUSH1 0x20 DUP4 ADD MSTORE POP PUSH1 0xC0 PUSH2 0x112B DUP5 DUP3 DUP6 ADD PUSH2 0xF85 JUMP JUMPDEST PUSH1 0x40 DUP4 ADD MSTORE POP SWAP3 SWAP2 POP POP JUMP JUMPDEST PUSH0 PUSH8 0xFFFFFFFFFFFFFFFF DUP3 GT ISZERO PUSH2 0x1151 JUMPI PUSH2 0x1150 PUSH2 0xEDA JUMP JUMPDEST JUMPDEST PUSH1 0x20 DUP3 MUL SWAP1 POP SWAP2 SWAP1 POP JUMP JUMPDEST PUSH0 PUSH2 0x116E PUSH2 0x1169 DUP5 PUSH2 0x1137 JUMP JUMPDEST PUSH2 0xF38 JUMP JUMPDEST SWAP1 POP DUP1 PUSH1 0x20 DUP5 MUL DUP4 ADD DUP6 DUP2 GT ISZERO PUSH2 0x1188 JUMPI PUSH2 0x1187 PUSH2 0xFFB JUMP JUMPDEST JUMPDEST DUP4 JUMPDEST DUP2 DUP2 LT ISZERO PUSH2 0x11B1 JUMPI DUP1 PUSH2 0x119D DUP9 DUP3 PUSH2 0xF71 JUMP JUMPDEST DUP5 MSTORE PUSH1 0x20 DUP5 ADD SWAP4 POP POP PUSH1 0x20 DUP2 ADD SWAP1 POP PUSH2 0x118A JUMP JUMPDEST POP POP POP SWAP4 SWAP3 POP POP POP JUMP JUMPDEST PUSH0 DUP3 PUSH1 0x1F DUP4 ADD SLT PUSH2 0x11CF JUMPI PUSH2 0x11CE PUSH2 0xFD2 JUMP JUMPDEST JUMPDEST PUSH1 0x1 PUSH2 0x11DC DUP5 DUP3 DUP6 PUSH2 0x115C JUMP JUMPDEST SWAP2 POP POP SWAP3 SWAP2 POP POP JUMP JUMPDEST PUSH0 DUP1 PUSH2 0x120 DUP4 DUP6 SUB SLT ISZERO PUSH2 0x11FC JUMPI PUSH2 0x11FB PUSH2 0xEC2 JUMP JUMPDEST JUMPDEST PUSH0 PUSH2 0x1209 DUP6 DUP3 DUP7 ADD PUSH2 0x10D5 JUMP JUMPDEST SWAP3 POP POP PUSH2 0x100 PUSH2 0x121B DUP6 DUP3 DUP7 ADD PUSH2 0x11BB JUMP JUMPDEST SWAP2 POP POP SWAP3 POP SWAP3 SWAP1 POP JUMP JUMPDEST PUSH0 DUP2 ISZERO ISZERO SWAP1 POP SWAP2 SWAP1 POP JUMP JUMPDEST PUSH2 0x1239 DUP2 PUSH2 0x1225 JUMP JUMPDEST DUP3 MSTORE POP POP JUMP JUMPDEST PUSH0 PUSH1 0x20 DUP3 ADD SWAP1 POP PUSH2 0x1252 PUSH0 DUP4 ADD DUP5 PUSH2 0x1230 JUMP JUMPDEST SWAP3 SWAP2 POP POP JUMP JUMPDEST PUSH32 0x4E487B7100000000000000000000000000000000000000000000000000000000 PUSH0 MSTORE PUSH1 0x32 PUSH1 0x4 MSTORE PUSH1 0x24 PUSH0 REVERT JUMPDEST PUSH32 0x4E487B7100000000000000000000000000000000000000000000000000000000 PUSH0 MSTORE PUSH1 0x11 PUSH1 0x4 MSTORE PUSH1 0x24 PUSH0 REVERT JUMPDEST PUSH0 PUSH2 0x12BC DUP3 PUSH2 0xF52 JUMP JUMPDEST SWAP2 POP PUSH2 0x12C7 DUP4 PUSH2 0xF52 JUMP JUMPDEST SWAP3 POP DUP3 DUP3 ADD SWAP1 POP DUP1 DUP3 GT ISZERO PUSH2 0x12DF JUMPI PUSH2 0x12DE PUSH2 0x1285 JUMP JUMPDEST JUMPDEST SWAP3 SWAP2 POP POP JUMP JUMPDEST PUSH32 0x4E487B7100000000000000000000000000000000000000000000000000000000 PUSH0 MSTORE PUSH1 0x12 PUSH1 0x4 MSTORE PUSH1 0x24 PUSH0 REVERT JUMPDEST PUSH0 PUSH2 0x131C DUP3 PUSH2 0xF52 JUMP JUMPDEST SWAP2 POP PUSH2 0x1327 DUP4 PUSH2 0xF52 JUMP JUMPDEST SWAP3 POP DUP3 PUSH2 0x1337 JUMPI PUSH2 0x1336 PUSH2 0x12E5 JUMP JUMPDEST JUMPDEST DUP3 DUP3 MOD SWAP1 POP SWAP3 SWAP2 POP POP JUMP JUMPDEST PUSH0 PUSH2 0x134C DUP3 PUSH2 0xF52 JUMP JUMPDEST SWAP2 POP PUSH2 0x1357 DUP4 PUSH2 0xF52 JUMP JUMPDEST SWAP3 POP DUP3 DUP3 SUB SWAP1 POP DUP2 DUP2 GT ISZERO PUSH2 0x136F JUMPI PUSH2 0x136E PUSH2 0x1285 JUMP JUMPDEST JUMPDEST SWAP3 SWAP2 POP POP JUMP JUMPDEST PUSH0 PUSH2 0x137F DUP3 PUSH2 0xF52 JUMP JUMPDEST SWAP2 POP PUSH2 0x138A DUP4 PUSH2 0xF52 JUMP JUMPDEST SWAP3 POP DUP3 DUP3 MUL PUSH2 0x1398 DUP2 PUSH2 0xF52 JUMP JUMPDEST SWAP2 POP DUP3 DUP3 DIV DUP5 EQ DUP4 ISZERO OR PUSH2 0x13AF JUMPI PUSH2 0x13AE PUSH2 0x1285 JUMP JUMPDEST JUMPDEST POP SWAP3 SWAP2 POP POP JUMP INVALID LOG2 PUSH5 0x6970667358 0x22 SLT KECCAK256 0xBE PC 0xA7 BYTE 0xF7 NOT 0xEB 0xBC 0x4F DUP6 RETURNDATASIZE DUP9 CALLCODE GAS SUB DUP13 0xC0 MCOPY 0xD2 0xD1 MLOAD 0xE9 0xEC MSIZE SWAP15 SELFBALANCE 0xD8 0xDF SWAP1 MSTORE8 PUSH14 0x9264736F6C634300081A00330000 "
		},
		"gasEstimates": {
			"creation": {
				"codeDepositCost": "1020000",
				"executionCost": "1059",
				"totalCost": "1021059"
			},
			"external": {
				"verifyTx(((uint256,uint256),(uint256[2],uint256[2]),(uint256,uint256)),uint256[1])": "infinite"
			},
			"internal": {
				"verify(uint256[] memory,struct Verifier.Proof memory)": "infinite",
				"verifyingKey()": "infinite"
			}
		},
		"methodIdentifiers": {
			"verifyTx(((uint256,uint256),(uint256[2],uint256[2]),(uint256,uint256)),uint256[1])": "f48d7729"
		}
	},
	"abi": [
		{
			"inputs": [
				{
					"components": [
						{
							"components": [
								{
									"internalType": "uint256",
									"name": "X",
									"type": "uint256"
								},
								{
									"internalType": "uint256",
									"name": "Y",
									"type": "uint256"
								}
							],
							"internalType": "struct Pairing.G1Point",
							"name": "a",
							"type": "tuple"
						},
						{
							"components": [
								{
									"internalType": "uint256[2]",
									"name": "X",
									"type": "uint256[2]"
								},
								{
									"internalType": "uint256[2]",
									"name": "Y",
									"type": "uint256[2]"
								}
							],
							"internalType": "struct Pairing.G2Point",
							"name": "b",
							"type": "tuple"
						},
						{
							"components": [
								{
									"internalType": "uint256",
									"name": "X",
									"type": "uint256"
								},
								{
									"internalType": "uint256",
									"name": "Y",
									"type": "uint256"
								}
							],
							"internalType": "struct Pairing.G1Point",
							"name": "c",
							"type": "tuple"
						}
					],
					"internalType": "struct Verifier.Proof",
					"name": "proof",
					"type": "tuple"
				},
				{
					"internalType": "uint256[1]",
					"name": "input",
					"type": "uint256[1]"
				}
			],
			"name": "verifyTx",
			"outputs": [
				{
					"internalType": "bool",
					"name": "r",
					"type": "bool"
				}
			],
			"stateMutability": "view",
			"type": "function"
		}
	]
}